8=FIX.4.4|9=111|35=V|49=QL4ADZEUNZ|56=SEEDCX|34=2|52=20190402-14:22:04.152|262=2|263=1|264=0|267=1|269=4|146=1|55=COSP:BTC/USD|10=031|
8=FIX.4.4|9=00135|35=f|49=SEEDCX|56=QL4ADZEUNZ|34=2|142=US,IL|52=20190402-14:22:05.133958798|369=2|55=COSP:BTC/USD|326=17|60=20190402-14:22:05.133958380|10=054|
8=FIX.4.4|9=00111|35=W|49=SEEDCX|56=QL4ADZEUNZ|34=3|142=US,IL|52=20190402-14:22:05.133967999|369=2|1181=16|55=COSP:BTC/USD|268=0|10=087|
8=FIX.4.4|9=217|35=D|49=QL4ADZEUNZ|56=SEEDCX|34=2|50=2F8QNWXP2N9E|142=US,IL|57=SCXM|52=20190402-14:22:27.237|369=1|11=Order184946|1=2F8QNWXP2|55=COSP:BTC/USD|54=1|60=20190402-14:22:27|38=5|40=2|44=7300|59=0|1031=A|528=A|582=1|1028=N|10=104|
8=FIX.4.4|9=00165|35=X|49=SEEDCX|56=QL4ADZEUNZ|34=4|142=US,IL|52=20190402-14:22:28.228012694|369=2|268=1|1181=17|279=0|269=0|55=COSP:BTC/USD|270=7300.0|271=5.0|278=337800000000012071|10=059|
8=FIX.4.4|9=0313|35=8|49=SEEDCX|56=QL4ADZEUNZ|34=2|50=SCXM|142=US,IL|57=2F8QNWXP2N9E|52=20190402-14:22:28.238866835|369=2|1=2F8QNWXP2|37=337800000000012071|11=Order184946|17=337800000000466512|150=0|39=0|55=COSP:BTC/USD|54=1|60=20190402-14:22:28.226000000|38=5.0|151=5.0|14=0.0|6=0.0|40=2|44=7300.0|59=0|1031=A|528=A|582=1|1028=N|10=073|
8=FIX.4.4|9=217|35=D|49=QL4ADZEUNZ|56=SEEDCX|34=3|50=2F8QNWXP2N9E|142=US,IL|57=SCXM|52=20190402-14:22:29.282|369=2|11=Order184947|1=2F8QNWXP2|55=COSP:BTC/USD|54=2|60=20190402-14:22:29|38=2|40=2|44=7300|59=0|1031=A|528=A|582=1|1028=N|10=109|
8=FIX.4.4|9=0339|35=8|49=SEEDCX|56=QL4ADZEUNZ|34=7|50=SCXM|142=US,IL|57=2F8QNWXP2N9E|52=20190402-14:22:32.171291389|369=4|1=2F8QNWXP2|37=337800000000012071|11=Order184946|17=337800000000466540|150=F|39=1|55=COSP:BTC/USD|54=1|60=20190402-14:22:32.136000000|38=5.0|151=1.0|14=4.0|31=7300.0|32=2.0|6=7300.0|40=2|44=7300.0|59=0|1031=A|528=A|582=1|1028=N|851=1|10=002|
8=FIX.4.4|9=00188|35=X|49=SEEDCX|56=QL4ADZEUNZ|34=6|142=US,IL|52=20190402-14:22:30.267608570|369=2|268=1|1181=19|279=1|269=0|55=COSP:BTC/USD|270=7300.0|271=3.0|278=337800000000012071|280=337800000000012071|10=155|
8=FIX.4.4|9=00146|35=X|49=SEEDCX|56=QL4ADZEUNZ|34=7|142=US,IL|52=20190402-14:22:30.267650237|369=2|268=1|1181=20|279=2|269=1|55=COSP:BTC/USD|280=337800000000012072|10=199|
8=FIX.4.4|9=00165|35=X|49=SEEDCX|56=QL4ADZEUNZ|34=8|142=US,IL|52=20190402-14:22:30.267691956|369=2|268=1|1181=21|279=0|269=2|55=COSP:BTC/USD|270=7300.0|271=2.0|278=337800000000466515|10=083|
8=FIX.4.4|9=0340|35=8|49=SEEDCX|56=QL4ADZEUNZ|34=10|50=SCXM|142=US,IL|57=2F8QNWXP2N9E|52=20190402-14:22:33.890950449|369=5|1=2F8QNWXP2|37=337800000000012071|11=Order184946|17=337800000000466557|150=F|39=2|55=COSP:BTC/USD|54=1|60=20190402-14:22:33.856000000|38=5.0|151=0.0|14=5.0|31=7300.0|32=1.0|6=7300.0|40=2|44=7300.0|59=0|1031=A|528=A|582=1|1028=N|851=1|10=063|
8=FIX.4.4|9=00165|35=X|49=SEEDCX|56=QL4ADZEUNZ|34=5|142=US,IL|52=20190402-14:22:30.267540422|369=2|268=1|1181=18|279=0|269=1|55=COSP:BTC/USD|270=7300.0|271=2.0|278=337800000000012072|10=051|
8=FIX.4.4|9=0339|35=8|49=SEEDCX|56=QL4ADZEUNZ|34=4|50=SCXM|142=US,IL|57=2F8QNWXP2N9E|52=20190402-14:22:30.300286885|369=3|1=2F8QNWXP2|37=337800000000012071|11=Order184946|17=337800000000466515|150=F|39=1|55=COSP:BTC/USD|54=1|60=20190402-14:22:30.265000000|38=5.0|151=3.0|14=2.0|31=7300.0|32=2.0|6=7300.0|40=2|44=7300.0|59=0|1031=A|528=A|582=1|1028=N|851=1|10=254|
8=FIX.4.4|9=00165|35=X|49=SEEDCX|56=QL4ADZEUNZ|34=9|142=US,IL|52=20190402-14:22:32.138113666|369=2|268=1|1181=22|279=0|269=1|55=COSP:BTC/USD|270=7300.0|271=2.0|278=337800000000012073|10=056|
8=FIX.4.4|9=00189|35=X|49=SEEDCX|56=QL4ADZEUNZ|34=10|142=US,IL|52=20190402-14:22:32.138203609|369=2|268=1|1181=23|279=1|269=0|55=COSP:BTC/USD|270=7300.0|271=1.0|278=337800000000012071|280=337800000000012071|10=185|
8=FIX.4.4|9=0313|35=8|49=SEEDCX|56=QL4ADZEUNZ|34=3|50=SCXM|142=US,IL|57=2F8QNWXP2N9E|52=20190402-14:22:30.278105825|369=3|1=2F8QNWXP2|37=337800000000012072|11=Order184947|17=337800000000466514|150=0|39=0|55=COSP:BTC/USD|54=2|60=20190402-14:22:30.265000000|38=2.0|151=2.0|14=0.0|6=0.0|40=2|44=7300.0|59=0|1031=A|528=A|582=1|1028=N|10=052|
8=FIX.4.4|9=0339|35=8|49=SEEDCX|56=QL4ADZEUNZ|34=5|50=SCXM|142=US,IL|57=2F8QNWXP2N9E|52=20190402-14:22:30.300290448|369=3|1=2F8QNWXP2|37=337800000000012072|11=Order184947|17=337800000000466516|150=F|39=2|55=COSP:BTC/USD|54=2|60=20190402-14:22:30.265000000|38=2.0|151=0.0|14=2.0|31=7300.0|32=2.0|6=7300.0|40=2|44=7300.0|59=0|1031=A|528=A|582=1|1028=N|851=2|10=245|
8=FIX.4.4|9=00147|35=X|49=SEEDCX|56=QL4ADZEUNZ|34=11|142=US,IL|52=20190402-14:22:32.138238492|369=2|268=1|1181=24|279=2|269=1|55=COSP:BTC/USD|280=337800000000012073|10=252|
8=FIX.4.4|9=00166|35=X|49=SEEDCX|56=QL4ADZEUNZ|34=12|142=US,IL|52=20190402-14:22:32.138283291|369=2|268=1|1181=25|279=0|269=2|55=COSP:BTC/USD|270=7300.0|271=2.0|278=337800000000466540|10=117|
8=FIX.4.4|9=217|35=D|49=QL4ADZEUNZ|56=SEEDCX|34=4|50=2F8QNWXP2N9E|142=US,IL|57=SCXM|52=20190402-14:22:31.153|369=5|11=Order184948|1=2F8QNWXP2|55=COSP:BTC/USD|54=2|60=20190402-14:22:31|38=2|40=2|44=7300|59=0|1031=A|528=A|582=1|1028=N|10=097|
8=FIX.4.4|9=00166|35=X|49=SEEDCX|56=QL4ADZEUNZ|34=13|142=US,IL|52=20190402-14:22:33.857455566|369=2|268=1|1181=26|279=0|269=1|55=COSP:BTC/USD|270=7300.0|271=2.0|278=337800000000012074|10=122|
8=FIX.4.4|9=0313|35=8|49=SEEDCX|56=QL4ADZEUNZ|34=6|50=SCXM|142=US,IL|57=2F8QNWXP2N9E|52=20190402-14:22:32.149059415|369=4|1=2F8QNWXP2|37=337800000000012073|11=Order184948|17=337800000000466539|150=0|39=0|55=COSP:BTC/USD|54=2|60=20190402-14:22:32.136000000|38=2.0|151=2.0|14=0.0|6=0.0|40=2|44=7300.0|59=0|1031=A|528=A|582=1|1028=N|10=066|
8=FIX.4.4|9=0339|35=8|49=SEEDCX|56=QL4ADZEUNZ|34=8|50=SCXM|142=US,IL|57=2F8QNWXP2N9E|52=20190402-14:22:32.171296547|369=4|1=2F8QNWXP2|37=337800000000012073|11=Order184948|17=337800000000466541|150=F|39=2|55=COSP:BTC/USD|54=2|60=20190402-14:22:32.136000000|38=2.0|151=0.0|14=2.0|31=7300.0|32=2.0|6=7300.0|40=2|44=7300.0|59=0|1031=A|528=A|582=1|1028=N|851=2|10=006|
8=FIX.4.4|9=00147|35=X|49=SEEDCX|56=QL4ADZEUNZ|34=14|142=US,IL|52=20190402-14:22:33.857514808|369=2|268=1|1181=27|279=2|269=0|55=COSP:BTC/USD|280=337800000000012071|10=006|
8=FIX.4.4|9=00189|35=X|49=SEEDCX|56=QL4ADZEUNZ|34=15|142=US,IL|52=20190402-14:22:33.857548175|369=2|268=1|1181=28|279=1|269=1|55=COSP:BTC/USD|270=7300.0|271=1.0|278=337800000000012074|280=337800000000012074|10=221|
8=FIX.4.4|9=00166|35=X|49=SEEDCX|56=QL4ADZEUNZ|34=16|142=US,IL|52=20190402-14:22:33.857601093|369=2|268=1|1181=29|279=0|269=2|55=COSP:BTC/USD|270=7300.0|271=1.0|278=337800000000466557|10=135|
8=FIX.4.4|9=217|35=D|49=QL4ADZEUNZ|56=SEEDCX|34=5|50=2F8QNWXP2N9E|142=US,IL|57=SCXM|52=20190402-14:22:32.873|369=8|11=Order184949|1=2F8QNWXP2|55=COSP:BTC/USD|54=2|60=20190402-14:22:32|38=2|40=2|44=7300|59=0|1031=A|528=A|582=1|1028=N|10=113|
8=FIX.4.4|9=00166|35=X|49=SEEDCX|56=QL4ADZEUNZ|34=17|142=US,IL|52=20190402-14:22:35.358359225|369=3|268=1|1181=30|279=0|269=1|55=COSP:BTC/USD|270=7300.0|271=2.0|278=337800000000012075|10=116|
8=FIX.4.4|9=0313|35=8|49=SEEDCX|56=QL4ADZEUNZ|34=9|50=SCXM|142=US,IL|57=2F8QNWXP2N9E|52=20190402-14:22:33.868415027|369=5|1=2F8QNWXP2|37=337800000000012074|11=Order184949|17=337800000000466556|150=0|39=0|55=COSP:BTC/USD|54=2|60=20190402-14:22:33.856000000|38=2.0|151=2.0|14=0.0|6=0.0|40=2|44=7300.0|59=0|1031=A|528=A|582=1|1028=N|10=085|
8=FIX.4.4|9=0340|35=8|49=SEEDCX|56=QL4ADZEUNZ|34=11|50=SCXM|142=US,IL|57=2F8QNWXP2N9E|52=20190402-14:22:33.890953474|369=5|1=2F8QNWXP2|37=337800000000012074|11=Order184949|17=337800000000466558|150=F|39=1|55=COSP:BTC/USD|54=2|60=20190402-14:22:33.856000000|38=2.0|151=1.0|14=1.0|31=7300.0|32=1.0|6=7300.0|40=2|44=7300.0|59=0|1031=A|528=A|582=1|1028=N|851=2|10=067|
8=FIX.4.4|9=218|35=D|49=QL4ADZEUNZ|56=SEEDCX|34=6|50=2F8QNWXP2N9E|142=US,IL|57=SCXM|52=20190402-14:22:34.374|369=11|11=Order184950|1=2F8QNWXP2|55=COSP:BTC/USD|54=2|60=20190402-14:22:34|38=2|40=2|44=7300|59=0|1031=A|528=A|582=1|1028=N|10=149|
8=FIX.4.4|9=0314|35=8|49=SEEDCX|56=QL4ADZEUNZ|34=12|50=SCXM|142=US,IL|57=2F8QNWXP2N9E|52=20190402-14:22:35.369261712|369=6|1=2F8QNWXP2|37=337800000000012075|11=Order184950|17=337800000000466573|150=0|39=0|55=COSP:BTC/USD|54=2|60=20190402-14:22:35.357000000|38=2.0|151=2.0|14=0.0|6=0.0|40=2|44=7300.0|59=0|1031=A|528=A|582=1|1028=N|10=117|
8=FIX.4.4|9=257|35=G|49=QL4ADZEUNZ|56=SEEDCX|34=7|50=2F8QNWXP2N9E|142=US,IL|57=SCXM|52=20190402-14:22:37.237|369=6|37=337800000000012075|41=Order184950|11=Replace184951|1=2F8QNWXP2|55=COSP:BTC/USD|54=2|60=20190402-14:22:37|38=15|40=2|44=7310|59=0|1031=A|528=A|582=1|1028=N|10=112|
8=FIX.4.4|9=00190|35=X|49=SEEDCX|56=QL4ADZEUNZ|34=18|142=US,IL|52=20190402-14:22:38.251297432|369=3|268=1|1181=31|279=1|269=1|55=COSP:BTC/USD|270=7310.0|271=15.0|278=337800000000012076|280=337800000000012075|10=002|
8=FIX.4.4|9=00147|35=X|49=SEEDCX|56=QL4ADZEUNZ|34=19|142=US,IL|52=20190402-14:22:41.291990999|369=3|268=1|1181=32|279=2|269=1|55=COSP:BTC/USD|280=337800000000012076|10=024|
8=FIX.4.4|9=0333|35=8|49=SEEDCX|56=QL4ADZEUNZ|34=13|50=SCXM|142=US,IL|57=2F8QNWXP2N9E|52=20190402-14:22:38.262064202|369=7|1=2F8QNWXP2|37=337800000000012076|11=Replace184951|41=Order184950|17=337800000000466575|150=5|39=0|55=COSP:BTC/USD|54=2|60=20190402-14:22:38.249000000|38=15.0|151=15.0|14=0.0|6=0.0|40=2|44=7310.0|59=0|1031=A|528=A|582=1|1028=N|10=125|
8=FIX.4.4|9=257|35=F|49=QL4ADZEUNZ|56=SEEDCX|34=8|50=2F8QNWXP2N9E|142=US,IL|57=SCXM|52=20190402-14:22:40.307|369=7|41=Replace184951|37=337800000000012076|11=Cancel184952|1=2F8QNWXP2|55=COSP:BTC/USD|107=COSP:BTC/USD|54=2|60=20190402-14:22:40|1031=A|528=A|582=1|38=15|1028=N|10=200|
8=FIX.4.4|9=0333|35=8|49=SEEDCX|56=QL4ADZEUNZ|34=14|50=SCXM|142=US,IL|57=2F8QNWXP2N9E|52=20190402-14:22:41.302509798|369=8|1=2F8QNWXP2|37=337800000000012076|11=Cancel184952|41=Replace184951|17=337800000000466577|150=4|39=4|55=COSP:BTC/USD|54=2|60=20190402-14:22:41.290000000|38=15.0|151=0.0|14=0.0|6=0.0|40=2|44=7310.0|59=0|1031=A|528=A|582=1|1028=N|10=157|





